:100000000C9499020C94DD020C94F8020C94DD021D
:100010000C94DD020C94DD020C94DD020C94DD02E4
:100020000C94DD020C94DD020C94B3200C94DD02E0
:100030000C94DD020C94DD020C94DD020C94DD02C4
:100040000C94DD020C94DD020C94DD020C94DD02B4
:100050000C94DD02840F870F8F0F940F990F9E0F62
:10006000A30FA80FAD0FB20FB70FBC0FBE0FC10F7C
:10007000C40FC70FCA0FCD0FCF0FD40FAE16AE16D9
:10008000E016E0162D174B176C186C185617EB1767
:10009000FC17FC175C186C186C1865180C190C19F7
:1000A0001E191E1915191E191E191E190C190C19C5
:1000B0001A191E191E191A19E000E300E2002C009B
:1000C0000000000000002C002C00E6005000520050
:1000D00051004F000000E10064001D001B000600FD
:1000E0001900050011001000360037003800E50047
:1000F000E5004C00390004001600070009000A0062
:100100000B000D000E000F003300340032002800F9
:1001100000002B0014001A000800150017001C0036
:1001200018000C00120013002F00300028000000FF
:1001300029411E001F00200021002200230024006E
:100140002500260027002D002E002A002A0000008E
:10015000000000000000000000000000000000009F
:10016000000000000000000000000000000000008F
:10017000000000000000000000000000000000007F
:10018000000000000000000000000000000000006F
:10019000000000000000000000000000000000005F
:1001A0000000000046000000C25CC45CC35CCC5C84
:1001B000CB5CCA5CC95CC15C0000000000000000B0
:1001C00000004600000000003A003B003C003D00FB
:1001D0003E003F0040004100420043004400450013
:1001E0000000000032190A00047F3F1F64321464CB
:1001F0003214783C1E1E140A052223252628292A9B
:100200002C2D2F3032333536383A3B3D3E40424379
:100210004547494A4C4E5051535557595A5C5E60B8
:1002200062646668696B6D6F71737577797B7D7FCA
:1002300081838587898A8C8E90929496989A9C9EC9
:100240009FA1A3A5A7A8AAACAEAFB1B3B4B6B8B9E5
:10025000BBBCBEBFC1C2C3C5C6C7C9CACBCCCDCE4D
:10026000D0D1D2D2D3D4D5D6D7D7D8D9D9DADADB30
:10027000DBDBDCDCDCDCDCDDDDDDDDDCDCDCDCDCBC
:10028000DBDBDBDADAD9D9D8D7D7D6D5D4D3D2D2FB
:10029000D1D0CECDCCCBCAC9C7C6C5C3C2C1BFBEE3
:1002A000BCBBB9B8B6B4B3B1AFAEACAAA8A7A5A34E
:1002B000A19F9E9C9A98969492908E8C8A8987850D
:1002C00083817F7D7B79777573716F6D6B696866EC
:1002D0006462605E5C5A5957555351504E4C4A49BE
:1002E00047454342403E3D3B3A3836353332302F66
:1002F0002D2C2A292826252322FFAA7F55400001DC
:1003000001010101010101010202020202020202D5
:1003100002030303030303030304040404040404A7
:10032000050505050506060606060707070707086B
:10033000080808090909090A0A0A0B0B0B0C0C0C1E
:100340000D0D0D0E0E0E0F0F0F10101111111212B8
:1003500013131414151516161717181819191A1A35
:100360001B1B1C1D1D1E1E1F202021222223242496
:10037000252626272829292A2B2C2D2D2E2F3031D2
:100380003232333435363738393A3B3C3D3E3F40E4
:100390004142434445464748494A4C4D4E4F5051CF
:1003A0005354555658595A5B5D5E5F616264656689
:1003B00068696B6C6D6F7072737577787A7B7D7E10
:1003C0008082838587888A8C8E8F91939596989A60
:1003D0009C9EA0A2A3A5A7A9ABADAFB1B3B5B7BA78
:1003E000BCBEC0C2C4C6C9CBCDCFD1D4D6D8DBDD4C
:1003F000DFE2E4E7E9EBEEF0F3F5F8FAFDFF0902DE
:100400003B00020100A0FA09040000010301010001
:1004100009210101000122400007058103080001B4
:10042000090401000103000000092101010001226B
:10043000810007058303080001120110010000007C
:1004400008A0202D42000201020301040330000035
:10045000000E0342002E006600610063006500008C
:10046000000A0359004D0044004B0000000403093A
:100470000405010902A10185020901A1000509196C
:100480000129051500250195057501810295017564
:100490000381030501093009311581257F95027516
:1004A00008810609381581257F95017508810605A3
:1004B0000C0A38021581257F950175088106C0C098
:1004C00005010980A101850319012AB7001501263C
:1004D000B700950175108100C0050C0901A10185C7
:1004E0000419012AA002150126A0029501751081A8
:1004F00000C005010906A101050719E029E715005B
:10050000250195087501810295017508810305078C
:10051000190029FF150026FF0095067508810005C2
:100520000819012905950575019102950175039139
:1005300003C011241FBECFE5D8E0DEBFCDBF04B697
:1005400003FE24C080914E0390914F03A09150036D
:10055000B09151038730904BA740B04BB9F4109243
:100560004E0310924F03109250031092510314BE89
:1005700084B7877F84BF0FB6F894A89581B588614A
:1005800081BD11BC0FBEE0E0F8E3099511E0A0E6E3
:10059000B0E0E0EEF4E502C005900D92A833B1079B
:1005A000D9F723E0A8E3B1E001C01D92AE34B20751
:1005B000E1F70E94CF250C946E2A0C940000A82F1E
:1005C000B92F80E090E041E050EA609530E009C04A
:1005D0002D9182279795879510F084279527305E77
:1005E000C8F36F5FA8F30895EADF8D939D93089594
:1005F000CF93CFB7CF93C395839BE9F7839B0EC06F
:10060000839B0CC0839B0AC0839B08C0839B06C04E
:10061000C0912503C395C0932503A6C0DF93C09165
:100620002403DD27C45DDC4F839B02C0DF91E6CF4E
:100630002F930F931F9300B32FEF03FB20F94F93DA
:100640003F9310B34FEF012703FB21F93BE031C08B
:100650004E7F012F10B3216028C0102F4D7F2260E4
:10066000000000B329C04B7F2460012F000010B3AD
:100670002BC010B3477F28602AC04F7E00B3206193
:100680002CC04F7D10B320622FC04F7B00B320647D
:1006900032C0422700B349934FEF0000102713FBED
:1006A00020F910B31C70C9F1297F91F2012703FBD7
:1006B00021F900B3237F89F2315058F1102713FB41
:1006C00022F910B3277E79F2012703FB23F92F7C4F
:1006D00081F200B3102713FB24F92F7971F200C0C7
:1006E00010B3012703FB25F92F7359F200C000B3A3
:1006F000102713FB26F9223040F200C010B3012767
:1007000003FB27F9243028F64F77206810B3000048
:10071000F9CF10E81ABF00271CC03B503195C31B0E
:10072000D04010E81ABF0881033C11F10B3401F1ED
:10073000209121031981110F1213EDCF4A81441F1B
:10074000093669F10D3211F0013E29F74F7009F0B9
:10075000042F00932A033F914F911F910F912F91E6
:10076000DF91CAB7C7FD47CFCF91CFBFCF911895C3
:1007700020912A03222379F310912803112309F0F1
:1007800044C034300AF443C0309328032093230339
:10079000109124033BE0311B3093240338C00091B7
:1007A0002803013094F50AE54F7049F430918C002C
:1007B00034FD2FC000938C00CEEFD2E02EC043302A
:1007C00059F0443091F03091090334FD22C0009378
:1007D0000903CAE0D3E021C03091420334FD19C0BF
:1007E00000934203C3E4D3E018C03091150334FDF5
:1007F00010C000931503C6E1D3E00FC02795A8F4FD
:100800005150A9F4220F0000F9CF4AE503C042ED90
:1008100001C0432FC4E1D0E032E011B31C60939AD1
:1008200011BB02B320E41CE05F93012756E002BB3A
:10083000279520F4515021F4220FF9CF012756E0DB
:1008400000003B5A02BBD0F2279528F4515029F4FE
:10085000220F0000F9CF012756E0279502BB20F4B4
:10086000515021F4220FF9CF012756E0299133236B
:1008700002BB21F6037F10912903110FC651D0400E
:1008800002BB11F01093210310E81ABF086011B3E6
:10089000137F402F437F5F9100C000C002BB11BB9C
:1008A00042BB59CF899A08950E9452040C94C414F3
:1008B000CF93C82F0E94C504882329F0C1FF02C02E
:1008C000919A01C0919881E0CF91089581E00895B7
:1008D00081E008950C94680408950C946C041F93AF
:1008E000CF93DF9300D000D01F92CDB7DEB74983FE
:1008F0005A836B833091990189819A81311114C097
:10090000662359F0222349F00E94481E182F682FB1
:1009100089819A810E94F11D03C00E941C1E182F1C
:1009200069817A81812F04C00E94481E69817A8181
:100930000F900F900F900F900F90DF91CF911F911C
:100940000C942D05FC01262F408151816281738119
:1009500084810C946F04CF93DF93EC0160E00E94DC
:10096000A204BE01DF91CF910C946D040E947A1F06
:10097000811102C00E9423200E9449110C944C074F
:100980000C94480708950C94C20481E00895CF9315
:10099000C82F0E94C3048C2F0E945804CF91089541
:1009A00008950E94FA180E94D0042FEB87E299E084
:1009B000215080409040E1F700C000000C94D92005
:1009C0000F931F93CF93DF93EC0161E00E94A20489
:1009D0008C01BE010E946A048823A9F1BE01C801EE
:1009E0000E94B810882379F1BE01C8010E940B1241
:1009F000882349F1BE01C8010E945D12882319F1C4
:100A0000BE01C8010E9488138823E9F0BE01C80115
:100A10000E946D0F8823B9F08A81882369F001153F
:100A20008CE5180731F00E3D1C4531F40E9423205F
:100A30000AC00E94D10407C0CE01DF91CF911F915F
:100A40000F910C94660480E0DF91CF911F910F917C
:100A5000089580E090E0089508952BE4829FC001FE
:100A60001124FC012FE0729FE00DF11D1124E60F0F
:100A7000F11DEE0FFF1FE854FF4F859194910895EB
:100A8000880F991FFC01EC51FE4F859194910895B8
:100A9000CF93DF930E942D050E946006EC01811523
:100AA000904508F041C0C11580E4D80708F0D1C0D6
:100AB000C83ED10510F5C03ED10508F0FDC0C83ACA
:100AC000D10578F4C53AD10508F0A2C0C130D105EE
:100AD00009F4F2C008F4EEC0C430D10508F0ECC04F
:100AE000E9C0CF3BD10508F49BC0C03CD10508F458
:100AF000E1C0CE01805C91099EC0C11590E2D9078A
:100B000058F4C11521E0D20708F0D6C0C03FD10586
:100B100008F4D0C0D065D0C0C11580E3D80708F074
:100B20008EC0CE019F7087C0C11595E5D90708F02A
:100B300043C0C11524E5D20708F0A2C0C11582E563
:100B4000D80708F5C11591E5D90708F085C0CE0191
:100B500074E0969587957A95E1F783709C2F937052
:100B600021E030E002C0220F331F9A95E2F73C6883
:100B7000382BCF70C695C69580E2C89FE00111243E
:100B8000C22BD32B99C09E01237033278C2F8695BF
:100B90008695C115D34508F064C0C1E0D0E002C01D
:100BA000CC0FDD1F2A95E2F720E2829FC0011124BD
:100BB000C82BD92BDC6880C0C11529E5D207A0F469
:100BC000C11588E5D80708F060C0C11596E5D907BA
:100BD00008F070C08C2F0E94F4068F71C82FD0E0EF
:100BE000DC2FCC27D06268C0C1152AE5D20708F4F3
:100BF00051C0CE0190568115904208F05BC08D2FF8
:100C00008F710E94F406DD27D0628F71D82B54C0FB
:100C1000C55AD0E0C554DF4FC881D0E0D0644CC085
:100C2000C85AD0E0CC0FDD1FC357DF4F0990D881E1
:100C3000C02DD46441C00E944005EC013DC0CE01EE
:100C40009927D3FF03C0EC01D86C36C0EC01D06CFF
:100C500033C0DF70D06A30C0DC2FCC27C16FD06AC0
:100C60002BC0C1E0D0E002C0CC0FDD1F2A95E2F717
:100C700020E2829FC0011124C82BD92BDA681CC046
:100C8000DC2FCC27C46FD06A17C0DC2FCC27C06FF5
:100C9000D06A12C08C2F8F700E94F40694E0D69513
:100CA000C7959A95E1F7CF70D0E0DC2FCC27D069BB
:100CB000C82B02C0C0E0D0E0CE01DF91CF910895F3
:100CC0008238910569F1B0F48133910509F46DC062
:100CD00048F48932910509F463C08A32910509F418
:100CE00069C008958533910509F455C0893391058C
:100CF000B9F00895833E910569F138F4803E91057D
:100D0000B1F0823E910509F10895863E9105A9F161
:100D1000873E9105B9F1843E910509F064C023C076
:100D20002091FC0220FD4FC021FD4DC0089580910F
:100D3000FC0280FD44C08091FD0280FF44C0809190
:100D4000FC0284FD42C083EE4DC08091FC0282FF14
:100D500038C0F5CF8091FC0282FD33C08091FD0246
:100D600080FD31C0ECCF8091FD0281FF32C08091C7
:100D7000FC0284FD2AC087EE35C08091FC0283FF0F
:100D800026C0F5CF8091FC0283FD21C08091FD0239
:100D900081FD1FC0ECCF8091FC0285FD1CC01DC0F1
:100DA0008091FC0285FD19C016C08091FC0286FD71
:100DB00016C017C08091FC0286FD13C010C089E3E5
:100DC00011C082EE0FC080EE0DC080E00BC086EE39
:100DD00009C084EE07C089E205C085E303C08AE24A
:100DE00001C081E390E008959091FC0292FF0DC054
:100DF000282F2871283019F4877F846006C0282F97
:100E00002471243011F48B7F886093FF0DC0282F4C
:100E10002871283119F4877E846106C0282F247137
:100E2000243111F48B7E88612091FD0220FF0DC0DA
:100E3000382F3871383019F4877F816006C0382F19
:100E40003171313011F48E7F886021FF0DC0282F61
:100E50002871283119F4877E816106C0282F2171FD
:100E6000213111F48E7E886194FD877E0895E82FEC
:100E7000F0E0EE0FFF1FEC53FD4F8081918108954C
:100E8000089588E78A95F1F7089508950C94450729
:100E90000C9446070C9445070C944A07CF93DF93B4
:100EA000ADECB0E042ED50E061E070E08D91E82FF4
:100EB000E295EF70F0E021A98F70EB0102C0CC0F3A
:100EC000DD1F8A95E2F7CE019C2F9095922391AB7E
:100ED00092A9892B82AB4A175B0741F7AEEBB0E0D2
:100EE0004DEC50E061E070E08D91E82FE295EF70FD
:100EF000F0E021A98F70EB0102C0CC0FDD1F8A95B5
:100F0000E2F7CE019C2F9095922391AB92A9892B69
:100F100082AB4A175B0741F7EAEBF2E0A4ECB2E0E0
:100F200084EC92E0119211921D921D928E179F07F0
:100F3000C9F785E00E942D08DF91CF910C94B6048B
:100F40006F927F928F929F92AF92BF92CF92DF92D9
:100F5000EF92FF920F931F93CF93DF938DECC82EE8
:100F600080E0D82E0AEB12E094ECA92E92E0B92E84
:100F7000712C88248394912CF60181916F01C82FE4
:100F8000C295CF70D0E099A98F70740101C0EE0CAA
:100F90008A95EAF7892F8E2989AB8AA96E2C6094ED
:100FA00086218AAB0E944107EEEBF0E040E050E082
:100FB00020E030E06191A62FA295AF70B0E0D0960E
:100FC0008C9190E06F7002C0959587956A95E2F7D5
:100FD00080FD08C0C401042E02C0880F991F0A9426
:100FE000E2F702C080E090E0282B392B4F5F5F4F83
:100FF0004F305105F9F689A9682269AA8AA9E82A19
:10100000EAAAF801808191812817390721F03183FC
:10101000208381E001C080E0782A0E5F1F4FA01678
:10102000B10609F0A9CF272D45E064EC72E08AEB08
:1010300092E00E942E080E94C004872DDF91CF917C
:101040001F910F91FF90EF90DF90CF90BF90AF90E6
:101050009F908F907F906F9008950895FF920F93C7
:101060001F93CF93DF93F82E092F162FD72FC42F5E
:10107000222349F081E080933A010E9498209093C6
:1010800039018093380180913A018823D9F0809109
:101090003801909139010E94A420069798F0EF2D15
:1010A000F02FA12FBD2F80E090E04C2F50E084174F
:1010B000950734F4219131912D933D930196F7CF0B
:1010C00010923A01DF91CF911F910F91FF900895F7
:1010D000EF92FF920F931F93CF93DF938B01682FB3
:1010E00011110AC0442329F0E82FF0E0E250FD4F2F
:1010F0006491762F862F75C0212F30E0E82FF0E025
:10110000442321F0E250FD4FE491F0E046E0049FDB
:10111000C0011124CFEFD0E0BE010E9411294BEA9B
:101120004603C001479F900D1124800F911D800F31
:10113000911D982F990F890FAE01421B530B4E9FA3
:10114000D0014F9FB00D5E9FB00D11249B2F189FB3
:10115000A0011124452F55278E01041B150B0E9F4E
:10116000A0010F9F500D1E9F500D11247E01E81A03
:10117000F108E29E8001E39E100DF29E100D1124F5
:10118000212F3327C21BD30BCE9F9001CF9F300D51
:10119000DE9F300D112462307105A9F048F461150D
:1011A000710569F061307105C9F48B2F752F0DC081
:1011B0006430710581F058F06630710579F47E2F46
:1011C0008B2F932F0DC0832F7B2F9E2F09C08E2F27
:1011D0007B2F952F05C08E2F732F02C07E2F852F5A
:1011E000692FDF91CF911F910F91FF90EF9008959C
:1011F00041E00E94680808950895CF93DF93762F09
:10120000E901682F842F0E94F808798368838A8314
:10121000DF91CF9108958091CE02282F269530E05E
:101220002115310519F48170826005C02B3231051A
:1012300024F0817084658093CE02089588E090E068
:101240000C94032ACF92DF92EF92FF926B017C0104
:101250000E940B09B701A60188E090E0FF90EF9093
:10126000DF90CF900C94202AEEECF2E083E08083B4
:1012700011828FEF828383831482608171818281E6
:1012800093810C9422098091CE0280FF02C0869542
:10129000089580E008959091D202933018F49F5FF2
:1012A0009093D202882351F06091CE027091CF02C8
:1012B0008091D0029091D1020C942209089581E08E
:1012C0000C944B099091D202992319F0915090936C
:1012D000D202882351F06091CE027091CF028091AA
:1012E000D0029091D1020C942209089581E00C94CF
:1012F000620970E00C945511609168008091CE02F3
:1013000080FF0AC08091670023E0829FC001112402
:101310008D529D4F0C9479098091690090916A00DB
:10132000891780F7E82FF0E09F01220F331FE20FAB
:10133000F31FED52FD4F1182108212828F5FF0CFAA
:101340009091CE0290FF16C09091690020916A00A2
:10135000921770F4E92FF0E0DF01AA0FBB1FEA0F2C
:10136000FB1FED52FD4F8183608342839F5FF0CF6F
:101370000C947C090895CF93DF9300D01F92CDB7D2
:10138000DEB79091CE0290FF0AC09E012F5F3F4FC3
:101390000E94FD084B8169818A810E94A0090F90FB
:1013A0000F900F90DF91CF910895CF93DF93EC01D1
:1013B000EC81F0E0E750FE4F4491EEECF2E0628108
:1013C00081810E94BB098C818F5F8C83DF91CF91DB
:1013D0000895CF93DF93EC01EEECF2E0438162815C
:1013E0008C810E94BB098C818F5F8C83DF91CF91B0
:1013F00008950F931F93CF93DF9300D01F92CDB723
:10140000DEB78C0180913B0181110AC09E012F5FE4
:101410003F4F4FEF6FEF0E94FD088A8180933B01A1
:10142000F8018481813051F028F0823061F44091DC
:101430003B010AC080913B0140E007C060913B0145
:1014400040E080E003C040E080E060E00E94A0094E
:10145000F801848190E0019663E070E00E94252904
:1014600084830F900F900F90DF91CF911F910F9178
:101470000895AF92BF92CF92DF92EF92FF920F93B7
:101480001F93CF93DF9300D01F92CDB7DEB7182FF5
:10149000F62E042FE22E9091CE0290FF6DC0E92F20
:1014A000E695AE2FB0E0AE52BF4F8C918093810194
:1014B0009E7F923061F49E012F5F3F4F812F0E94EB
:1014C000FD084B8169818A810E94A00943C0823056
:1014D00019F40091D1023EC0863019F41091CF0268
:1014E00039C08930D9F38931A9F5E9518E2F81703E
:1014F000D82EE695F0E0E750FD4FA590B490C12CB2
:10150000BB2460916B00C61618F52C2D30E0A29E0E
:10151000C001A39E900DB29E900D112470E00E9418
:101520001129812FD11002C0860F01C0861B909116
:101530006900290F311DA901440F551F240F351FC4
:101540002D523D4F402F6F2D0E94FD08C394D9CFDF
:101550000E947C091093CF02F092D0020093D10236
:10156000EE2051F06091CE027091CF028091D002B6
:101570009091D1020E9422090F900F900F90DF915D
:10158000CF911F910F91FF90EF90DF90CF90BF9080
:10159000AF900895EEECF2E09181282F43816281B3
:1015A00088E0890F0C94390A81E00C94CA0AEEECA9
:1015B000F2E09181282F4381628188EF890F0C949A
:1015C000390A81E00C94D70AEEECF2E0628128E05F
:1015D000620F08F46FEF282F438181810C94390A40
:1015E00081E00C94E40AEEECF2E0628128E0621BF8
:1015F00008F460E0282F438181810C94390A81E04E
:101600000C94F30AEEECF2E0438128E0420F08F478
:101610004FEF282F628181810C94390A81E00C946C
:10162000020BEEECF2E0438128E0421B08F440E0BC
:10163000282F628181810C94390A81E00C94110B6E
:1016400020E00C94390AFF920F931F93CF93DF93FE
:10165000EC01F12C0FEF10E060916B00F616F0F446
:10166000809169002F2D30E0280F311DC901880FAE
:10167000991F280F391F2D523D4F70E0C8010E945D
:101680002529962F8C814091D1026091D002F99E3C
:10169000800D11240E94FD08F394DECF0E947C0986
:1016A0009A818C8190FF02C08F5F01C081508C8332
:1016B000DF91CF911F910F91FF900895AF92BF924C
:1016C000CF92DF92EF92FF920F931F93CF93DF930E
:1016D000FC01828180FF02C00FEF01C001E010E039
:1016E0004CE0A42E80916B00181708F043C0809145
:1016F0006900C12ED12CE601C80FD11DCE01880F83
:10170000991FC80FD91FCD52DD4F198218821A8236
:1017100034E0E32EF12CB12C80913D018B0D8D3006
:101720002CF06A2D0E940329892F05C087FF03C072
:1017300090916B00890F082E000C990BC816D906E2
:1017400091F48091D1028E9DA0018F9D500D1124A6
:1017500055954795559547959E016091D00280918A
:10176000CF020E94FD08B00EF1E0EF1AF108A1F6D9
:101770001F5FB8CF0E947C0980913D01013031F498
:10178000811102C080916B00815007C090E00196EA
:1017900060916B0070E00E94252980933D01DF91EC
:1017A000CF911F910F91FF90EF90DF90CF90BF905E
:1017B000AF900895CF938091690090916A00891746
:1017C00070F4E82FF0E09F01220F331FE20FF31FA8
:1017D000ED52FD4F1182108212828F5FF0CFC0E078
:1017E00060916B00C617C0F5EC2FF0E070E0CF0100
:1017F0000E94252920916900820F20913C01022E30
:10180000000C330B90E0E217F307CCF02091660058
:10181000022E000C330B2E173F078CF09C01220F79
:10182000331F820F931F9C012D523D4F4091D102D7
:101830006091D0028091CF020E94FD080BC0FC0194
:10184000EE0FFF1F8E0F9F1FFC01ED52FD4F118207
:1018500010821282CF5FC4CF0E947C092091650064
:1018600080913C01820F80933C0190916600920F21
:101870009093660019165CF4082E000C990B4091A9
:101880006B0050E041505109841795071CF02195D9
:1018900020936500CF9108958F929F92AF92BF924F
:1018A000CF92DF92EF92FF920F931F93CF93DF932C
:1018B0008C01FC014481C42FD0E09E01DE010E9416
:1018C00069299B01AC010E947F296B017C01E0E248
:1018D000F0E0EC1BFD0BA5E5B0E09B01AC010E9424
:1018E0007F294B015C019F01DF010E9461299B015F
:1018F000AC010E948A299B01AC012C0D3D1D4E1D9F
:101900005F1DC501B4010E943929C22FD22F2A328E
:1019100028F4F3E02F9F900111240DC025E530E05D
:101920002C1B3109C901880F991F280F391F37FF58
:1019300002C02F5F3F4F35952795C22FC095F12CE0
:1019400085E5E82EED1A80916B00F816C8F4F1FCDD
:1019500002C08E2D01C08D2F909169002F2D30E097
:10196000290F311DA901440F551F240F351F2D527A
:101970003D4F4C2F6091D0020E94FD08F394E3CFBD
:101980000E947C09F8018481811102C091E003C0AA
:10199000803219F49FEF9093640090916400890F56
:1019A000F8018483DF91CF911F910F91FF90EF9009
:1019B000DF90CF90BF90AF909F908F9008950F933E
:1019C0001F93CF93DF93EC0100E010E080916B0058
:1019D000282F30E00217130724F590916900980131
:1019E000290F311DA901440F551F240F351F2D52FA
:1019F0003D4F869590E04C81081719071CF444234D
:101A000031F002C0411103C04091D10201C040E059
:101A10006091D0028091CF020E94FD080F5F1F4F9E
:101A2000D5CF0E947C098C8190E001968170992726
:101A30008C83DF91CF911F910F9108958F929F9288
:101A4000AF92BF92CF92DF92EF92FF920F931F93CC
:101A5000CF93DF93FC01B280948081E0848300E027
:101A600015E05BE4A52E88248394EE24EA94F12CFF
:101A70007BE4C72ED12C80916B00081708F08FC033
:101A8000C02FD0E01C9FF0011D9FF00D1124E25CDF
:101A9000FE4F911003C01382128267C0238122235C
:101AA00089F1215023833481332319F09A2D921B1D
:101AB00001C0922F8091D1021C9FF0011D9FF00D5B
:101AC0001124E25CFE4F899FC0011124B6010E94DF
:101AD00011296283211104C0332311F01482A382DF
:101AE00022E02B1508F441C01C9FF0011D9FF00D52
:101AF0001124E25CFE4F8091CF0280838091D0025E
:101B0000818333C00E94DE298230914074F582E0E7
:101B10008B1530F40E94DE29B7010E94252902C0EE
:101B20008091CF021C9FF0011D9FF00D1124E25CFB
:101B3000FE4F808322E02B1558F40E94DE2920916D
:101B4000D0022695622F70E00E942529820F02C0E4
:101B50008091D0021C9FF0011D9FF00D1124E25CCA
:101B6000FE4F81831282A3828482809169009E014C
:101B7000280F311DC901880F991F280F391F2D52B9
:101B80003D4F1C9FF0011D9FF00D1124E25CFE4FA4
:101B90004281618180810E94FD080F5F6CCFDF91DF
:101BA000CF911F910F91FF90EF90DF90CF90BF905A
:101BB000AF909F908F900C947C09EEECF2E08081C6
:101BC0008E7F808360817181828193810E9422094E
:101BD000109282012FEB84ED91E0215080409040E3
:101BE000E1F700C000000C947C096091CE0266957C
:101BF00070E04BE050E08CE690E00E94EE29892BEB
:101C000019F481E0809382010E94982090937B01D7
:101C100080937A0108959091CE0290FF35C0917023
:101C2000811102C0926006C08B3210F0946502C030
:101C3000880F982B9093CE02662351F06091CE02CC
:101C40007091CF028091D0029091D1020E9422091E
:101C50006091CE02669570E04BE050E08CE690E03B
:101C60000E94EE29892B19F01092820102C00E9475
:101C7000F50D81E080937D014091D1026091D00209
:101C80008091CF020C94200B0895682F9091CE0282
:101C9000969581E0890F8B3208F081E00C940B0E51
:101CA00081E00C94450E682F9091CE0296958FEFAF
:101CB000890F09F48AE20C940B0E81E00C94530E08
:101CC00061E00C940B0EEEECF2E080818160808389
:101CD00086950C94600E8091CE0280FD0C94DD0DF3
:101CE0000C94630E60E00C940B0E809180018111C6
:101CF0002EC00E947A1F811104C00E9423200E94DE
:101D000034090E941E096093CE027093CF02809323
:101D1000D0029093D1026E7F61F40E9434090E9438
:101D20001E096093CE027093CF028093D0029093ED
:101D3000D1020E940B09109282018091CE0280FF95
:101D400003C086950E94720E81E080938001089501
:101D50000F931F93CF93DF9380918201882309F41F
:101D60009CC080918101E091CE02E695E81BE09352
:101D70007C01823049F4F0E0EB50FE4FE491CE2F2D
:101D8000D0E005ED19E059C0863049F4F0E0EE509E
:101D9000FE4FE491CE2FD0E009EE19E04EC089301D
:101DA00051F4E695F0E0E151FE4FE491CE2FD0E002
:101DB00003E21BE042C08F3051F4E695F0E0E451BD
:101DC000FE4FE491CE2FD0E00EE51BE036C085310A
:101DD00049F4F0E0E751FE4FE491CE2FD0E00AED58
:101DE0001BE02BC08831D9F0833239F4E7EEF1E003
:101DF000C591D49109EF19E020C08432A9F0853251
:101E0000C1F48E2F63E00E94F728E92FF0E0EC5137
:101E1000FE4FE491CE2FD0E00EE11DE00EC0C8E2EF
:101E2000D0E00CE41CE009C0C4EFD1E00FED1CE0F1
:101E300004C0C0EDD7E00CEF18E080917D0188234D
:101E400089F010927D010E9498209E012095309586
:101E5000820F931F90937B0180937A0110927F01F0
:101E600010927E0180917A0190917B010E94A420C2
:101E70008C179D0790F0E0917A01F0917B01CE0FD5
:101E8000DF1FD0937B01C0937A018AE791E0F801CC
:101E9000DF91CF911F910F910994DF91CF911F9105
:101EA0000F910895882311F0FA0101C0FB010994F4
:101EB000CF93DF93C82FD62F0E9443098C1740F091
:101EC0000E9443098D1720F4DF91CF910C94500E9E
:101ED0008C2FDF91CF910C94600E0F931F93CF93B3
:101EE000FB01C281CC2309F463C08C010E94C91E8E
:101EF0008272F801E25CFC45E431F10508F059C05A
:101F0000E65DFF4F0C945B290E946B0E06C04DE509
:101F10005EE060E57EE00E94520FC0E04AC040E50E
:101F20005EE06DE57EE0F7CF41EE5AE064ED7AE0E9
:101F3000F2CF44ED5AE061EE7AE0EDCF4FEF5AE098
:101F400060EF7AE0E8CF40EF5AE06FEF7AE0E3CF5E
:101F50004DE15BE06EE07BE0DECF4EE05BE06DE10B
:101F60007BE0D9CF46E759E06FE579E0D4CF4FE584
:101F700059E066E779E0CFCF81E017C065E082E005
:101F800010C068E086E00DC06EE089E00AC064E140
:101F90008FE007C067E185E104C088E106C062E226
:101FA00089E10E94580FB9CF83E20E94600EB5CF3D
:101FB000C1E08C2FCF911F910F9108950E947A1F3D
:101FC000811102C00E9423200E94AB1F8093F70260
:101FD000282F26952695269530E02730310524F0C8
:101FE000877080638093F7028091F70280FF04C0BE
:101FF00086958695869501C080E00C94ED10209121
:10200000F702822F869586958695482F50E04630B8
:10201000510554F48F5F982F990F990F990F822FC4
:102020008770892B8093F7028091F70281608093FB
:10203000F7020E94AF1F8091F702869586958695DC
:102040000C94ED108091F702982F969596959695A1
:10205000A1F0915E990F990F990F8770892B80934A
:10206000F702887F91E009F490E08091F70290FBFD
:1020700080F98093F7020E94AF1F8091F702869546
:10208000869586950C94ED108091F70280FD13C023
:1020900081608093F702813019F489E08093F70220
:1020A0008091F7020E94AF1F8091F7028695869576
:1020B00086950C94ED1008958091F70280FF08C07A
:1020C0008E7F8093F7020E94AF1F80E00C94ED108A
:1020D00008958091F70280FD0C945C100C944410DC
:1020E0009091F702892F8695869586958F5F8F71DF
:1020F0009770873038F4880F880F880F892B80936A
:10210000F70202C09093F7028091F702887F91E076
:1021100009F490E08091F70290FB80F98093F70238
:102120000E94AF1F8091F7028695869586950C9444
:10213000ED10873008F086E09091F7029770282F15
:10214000220F220F220F922B9093F702987F21E00B
:1021500009F420E09091F70220FB90F99093F702A8
:102160000C94ED100E9499108091F7020C94AF1F0F
:102170009C01FB018281882349F12D3BFCE53F074F
:10218000C9F040F42B3BECE53E0769F02C3B3C45A5
:1021900061F008952F3B9CE5390791F070F0203CE9
:1021A0003C4589F0089586E001C080E00E94B210AD
:1021B00080E008950E942210FBCF0E94FF0FF8CF0D
:1021C0000E946910F5CF0E947010F2CF81E008954F
:1021D0008C9A9498089594980895CF92DF92EF92F4
:1021E000FF92CF93C82F873040F4811107C08FB57D
:1021F0008F7D8FBD0E94EB1004C0C6E08FB580625A
:102200008FBD2C2F30E0AFEFBFEF0E94692926E091
:1022100030E040E050E00E943929C9012C3764E1E8
:10222000360728F469E070E00E94112929C0DA011C
:10223000C9018A50974DAF4FBF4F6627782F892F1E
:102240009A2F25EF38E241E050E00E9439296901D8
:102250007A01CA01B9010E94E7289B01AC01C701BC
:10226000B6010E94E728BB27A92F982F872F009738
:1022700021E0A207B10511F0BC0102C06FEF7FEFB2
:1022800079BD68BDCF91FF90EF90DF90CF9008951A
:1022900008950E94E81082E28FBD89E18EBD8FEF24
:1022A0009FEF97BD86BD0C94DE0F0F931F93CF93C6
:1022B000DF938C01EB0180918301811105C00E94A5
:1022C000B91381E080938301AE01440F551F4C0F79
:1022D0005D1F24E630E0B80180EBDF91CF911F91C4
:1022E0000F910C944314AF92BF92CF92DF92EF9272
:1022F000FF920F931F93CF93DF937C015B01C42F59
:10230000D22FFC0182818823F9F0409386010E943C
:102310009820909385018093840180E28C0F88300F
:1023200008F06EC0C77081E001C0880FCA95EAF757
:10233000DF91CF911F910F91FF90EF90DF90CF90A1
:10234000BF90AF900C946A1680918601481335C0F7
:1023500080918401909185010E94A4206C01B701B5
:10236000C5010E94B31BC816D90638F510E21D0F2F
:10237000CD17B9F080E28C0F883040F4C77081E04F
:1023800001C0880FCA95EAF70E947116183058F5F7
:1023900081E09D2F977001C0880F9A95EAF70E94FF
:1023A0006A16802F0E945716183050F5D77081E0BA
:1023B00001C0880FDA95EAF70AC080E28C0F8830F6
:1023C000F8F4C77081E001C0880FCA95EAF7DF9181
:1023D000CF911F910F91FF90EF90DF90CF90BF9022
:1023E000AF900C947116802FDF91CF911F910F91B8
:1023F000FF90EF90DF90CF90BF90AF900C94571666
:10240000DF91CF911F910F91FF90EF90DF90CF90D0
:10241000BF90AF9008950F939C01CB01233F4CE5F3
:10242000340731F188F4283DFCE53F07D9F0293D18
:102430004CE5340779F1273D3C45A9F506E221EE4C
:1024400041EE67ED7CE52BC0253FFCE53F07E1F061
:10245000A8F0263F3C4539F507E225EE46EE66EF4B
:102460007CE51DC007E225EE45EE68ED7CE517C072
:1024700006E221EE40EE63EF7CE511C007E225EEB7
:1024800044EE64EF7CE50BC006E221EE42EE65EF20
:102490007CE505C008E221E045EE69ED7CE50E949F
:1024A000731180E008C0FC018281882319F010922A
:1024B000860101C081E00F910895CF93DF93EC0175
:1024C000FB018281882309F41FC1C230FCE5DF07CC
:1024D00008F41BC1C6319CE5D90738F09E012A5F7C
:1024E0003C452930310508F010C10E948D1F9093A2
:1024F000FD028093FC02C031ECE5DE0709F4C3C0A5
:1025000008F041C0C8308CE5D80709F49AC0F0F44F
:10251000C430ECE5DE0709F487C068F4C2308CE50E
:10252000D80709F477C0C330DC4509F0E3C08091D7
:10253000FC02826076C0C630ECE5DE0709F46EC0AE
:1025400008F07BC08091FC0288606BC0CC308CE5C9
:10255000D80709F485C068F4CA30ECE5DE0709F451
:1025600074C008F079C00E94FA188091FC0280685B
:1025700058C0CE308CE5D80709F476C008F07FC08B
:102580008091FC028BC0CB3FECE5DE0709F44FC025
:1025900018F5C3318CE5D80709F47DC078F4C13152
:1025A000ECE5DE0709F473C0C231DC4509F0A2C0D6
:1025B0000E94FA188091FC028F7733C0C5318CE5F8
:1025C000D80709F472C008F486C0CA3FDC4509F098
:1025D00091C08091FD023EC0CF3FFCE5DF0709F4CA
:1025E0005FC058F4CD3F9CE5D90709F444C008F416
:1025F0003FC08091FD0282602DC0C130FDE5DF0744
:1026000009F475C008F45DC0C230DD4509F072C040
:1026100080E06EC08091FC02816003C08091FC026A
:1026200080618093FC0266C08091FC0211C08091A1
:10263000FD0282608093FD025DC08091FC02806299
:10264000F0CF8091FC028064ECCF8091FC02886026
:102650008460E7CF8160EECF8091FC028E7FE1CF76
:102660008091FC028D7FDDCF8091FC02877FD9CFE6
:102670008091FD0218C08091FD028D7FDBCF80919B
:10268000FC028F7ECECF8091FC028F7DCACF8091DD
:10269000FC028F7BC6CF8091FC02877F8B7FC1CFEE
:1026A0008091FD028D7F8E7FC5CF8091FC0282FBE1
:1026B000222720F991E0922790FB82F990FB83F981
:1026C000B0CF8091FD02982F909591708E7F892BCD
:1026D00090FB81F9AFCF0E94FA188091FC0287FB32
:1026E000222720F991E0922790FB87F99ACF81E089
:1026F0000E9425208091FC029091FD020E949E1F65
:102700000E94FA1880E001C081E0DF91CF91089526
:10271000CF93DF9386319C4541F5EB010E94C91EA2
:10272000982F8A812091770030917800882379F062
:102730009A7A81E009F480E080938701911102C0C8
:1027400069E201C065E3C9010E946C200AC0809162
:102750008701811102C069E201C065E3C9010E94DD
:102760006E200E94171F80E001C081E0DF91CF91B1
:10277000089511B887E080B985B3836085BB86B7BB
:10278000846086BF86B7816086BF86B7806486BF57
:102790000895EF92FF920F931F93CF93DF93182F1B
:1027A000EB0116BE84EA86BF0E9498207C0106B623
:1027B00007FC0EC0CF3F8FEFD807C9F30E949820C7
:1027C0008E199F098C179D0790F38EEF9FEF28C0FD
:1027D00081B1887F883039F081B1887F803119F0EC
:1027E0008FEF9FEF1DC013B984E886BF0E94982029
:1027F0008C0106B607FC0CC0CF3F8FEFD807C9F39A
:102800000E949820801B910B8C179D0790F3DDCFC1
:1028100081B1887F883111F0803411F780E090E039
:10282000DF91CF911F910F91FF90EF9008950F933B
:102830001F93CF93DF93EB0183B984E886BF0E9497
:1028400098208C0106B607FC0EC0CF3F8FEFD8074B
:10285000C9F30E949820801B910B8C179D0790F361
:102860008EEF9FEF0BC021B1287F81E090E02832EE
:1028700011F480E090E0919581959109DF91CF91DD
:102880001F910F910895CF92DF92EF92FF920F93D5
:102890001F93CF93DF936B018A017901B9010E94E5
:1028A000C913E6010C0D1D1DC017D10759F424E909
:1028B00026BFDF91CF911F910F91FF90EF90DF9096
:1028C000CF90089597FDF3CFB70189910E94171417
:1028D000EBCF90938D0180938C010895E0918C0152
:1028E000F0918D01309721F00190F081E02D099455
:1028F00080E00895E0918C01F0918D01309721F0F6
:102900000280F381E02D09940895E0918C01F0910B
:102910008D01309721F00480F581E02D0994089510
:1029200020918A0130918B012817390771F090931B
:102930008B0180938A01E0918C01F0918D01309799
:1029400021F00680F781E02D0994089520918801F7
:10295000309189012817390771F09093890180938C
:102960008801E0918C01F0918D01309721F0008475
:10297000F185E02D0994089584B7806884BF84B7F9
:10298000806884BF089508950C94C3140C94C314F4
:102990000C94C3140E94BC140E94C6140C945404DA
:1029A00081E008950C94D0140E9491200E944E075B
:1029B0000E94F2200E94DE0F0E94750E0C94C81433
:1029C0007F928F929F92AF92BF92CF92DF92EF92BF
:1029D000FF920F931F93CF93DF93CDB7DEB72A9764
:1029E0000FB6F894DEBF0FBECDBF0E94A0070E94B5
:1029F000D214811111C08FEF89838A831B820E94B8
:102A000098208160782F9D838C8349815A816B81C6
:102A10008D810E9494154FC04FE8A42E41E0B42E42
:102A200000E010E0702E802F0E9437076C01F50146
:102A3000819091905F01882699268114910431F448
:102A40000F5F1F4F0530110569F7D5CF809119022F
:102A500081FD0E94400780E0EE24E394F12C940174
:102A60002E213F21232B09F18E837F82CE20DF2070
:102A700081E0CD2809F480E088870E949820816059
:102A8000782F9A8789874E815F8168858A850E9421
:102A90009415000F111FF801E157FE4F80819181BD
:102AA000E826F926F182E08206C08F5FEE0CFF1C5B
:102AB0008F30A9F6C5CF0E94A80E0E9448110E942F
:102AC000A1220E946E1490918E018917C9F00E9474
:102AD0006E1480938E012A960FB6F894DEBF0FBE57
:102AE000CDBFDF91CF911F910F91FF90EF90DF90BD
:102AF000CF90BF90AF909F908F907F900C94C70421
:102B00002A960FB6F894DEBF0FBECDBFDF91CF91EE
:102B10001F910F91FF90EF90DF90CF90BF90AF90FB
:102B20009F908F907F900895CF93DF93CDB7DEB7BE
:102B30002B970FB6F894DEBF0FBECDBF4F835887DB
:102B400069877A878B87DE01119686E0FD011192F5
:102B50008A95E9F785E0FE01379601900D928A95F6
:102B6000E1F749815A816B817C818D819E810E9430
:102B7000B61B2B960FB6F894DEBF0FBECDBFDF910C
:102B8000CF910895FC01808191810E948A1E089551
:102B9000CF93882309F455C0C82F8CEF8C0F813A4E
:102BA000F8F48C2F0E943E2581114BC06C2F809130
:102BB0007700909178000E943620882349F06C2F8E
:102BC00080917700909178000E946E200E94171FDC
:102BD0006C2F80917700909178000E946C200CC03F
:102BE00080E28C0F883058F4C77081E001C0880FF4
:102BF000CA95EAF70E94CC1ECF910C94171FEBE503
:102C0000EC0FE33040F4F0E0E55DFE4F808190E0B2
:102C1000CF910C949014E8E5EC0FE73150F4F0E01C
:102C2000EE0FFF1FE350FF4F80819181CF910C94F5
:102C3000A614C03F30F08C2F0E949621CF910C94A7
:102C40008322CF910895882389F19CEF980F913AC0
:102C500040F4682F80917700909178000E946E2058
:102C60000DC090E2980F983058F4877091E001C041
:102C7000990F8A95EAF7892F0E94D21E0C94171F8C
:102C80009BE5980F933020F480E090E00C94901432
:102C900098E5980F973120F480E090E00C94A6140A
:102CA000803F20F00E94FE210C9483220895CF9350
:102CB000C82F0E94C815C93349F42FEF8DEE92E05A
:102CC000215080409040E1F700C000008C2FCF9150
:102CD0000C942316882321F00E94CC1E0C94171FFD
:102CE0000895882321F00E94D21E0C94171F089586
:102CF000CF92DF92EF92FF920F931F93CF93DF93C8
:102D00007C01062FC72FFC01158112951F70D281FF
:102D1000D1110E94E91E0E94C21E882399F0DD2372
:102D200089F08C2F807F803421F080E2800F883002
:102D300048F082E00E94611F0E94C21E91E0D82EDE
:102D4000D92601C0D12CCC2EC2948FE0C8228C2D64
:102D500090E0FC01E25CFF4F0C945B298C2F807F9C
:102D6000CF70882311F0C295C07FDD2399F0CC236A
:102D700009F48DC180E2800F883010F0011104C089
:102D80008C2F0E94CC1E03C08C2F0E94DC1E0E9440
:102D9000171F7DC1802F0E942316CC2309F49CC1EC
:102DA00080E2800F883010F0011104C08C2F0E9447
:102DB000D21E03C08C2F0E94E21E0E94171F8CC1DE
:102DC0008C2F807FCF70803211F0C295C07F00239E
:102DD00019F00130C9F022C0DD2371F0112341F058
:102DE000113031F40E94FC1E8C2B0E94041F74C110
:102DF0000E94FC1E8C2B1DC0112319F0113009F408
:102E00006BC10E940D1F25C0DD2321F0163008F094
:102E100063C10EC0153008F05FC11BC0DD2361F037
:102E2000112331F0F701858180FF31C18F708583D7
:102E30008C2F0E946A1650C1112359F0093309F0F2
:102E400037C1FFEF2DEE82E0F15020408040E1F7E6
:102E50002DC18C2F0E9471163FC18C2F86958695AF
:102E6000837019F0813061F037C1DD2321F0802FAC
:102E70009C2F937002C080E090E00E94901434C1B7
:102E8000DD2321F0802F9C2F937002C080E090E022
:102E90000E94A61429C1802FDD2319F00E949621DB
:102EA00002C00E94FE210E9483221EC18C2F8370CB
:102EB00009F045C0D11114C1402F42954695477085
:102EC000440F440F602F6F70862F90E0A0E0B0E0B9
:102ED000042E04C0880F991FAA1FBB1F0A94D2F7A3
:102EE00004FF10C00FE010E020E030E004C0000F4D
:102EF000111F221F331F4A95D2F700951095209578
:102F0000309503C000E010E09801C695C695C370E7
:102F1000BC01CD01602B712B822B932BC23049F069
:102F200058F4C13019F00E94071DDAC00E94F51C48
:102F3000D7C00E94191DD4C00E94F31CD1C0DD234C
:102F400019F08C2F817001C08695882309F4C8C0C0
:102F5000402F429546954770440F440F602F6F7085
:102F6000862F90E0A0E0B0E0042E04C0880F991FE7
:102F7000AA1FBB1F0A94D2F704FF10C00FE010E095
:102F800020E030E004C0000F111F221F331F4A95BC
:102F9000D2F7009510952095309503C000E010E021
:102FA0009801C695C695C370BC01CD01602B712BED
:102FB000822B932BC23049F058F4C13019F00E9493
:102FC000CC1D8EC00E94BA1D8BC00E94DE1D88C021
:102FD0000E942D1D85C0CF70DD2339F08C2F0E94FB
:102FE000531D802F0E946A167BC0802F0E9471168D
:102FF0008C2F0E94741D74C0023F01F128F4003F21
:1030000041F0013FA1F03FC0033FF9F0043F39F127
:103010003AC0DD2341F0153008F05EC08C2F8F716F
:103020000E94991D59C0163008F056C0F7CFDD2315
:1030300039F08C2F8F710E94531D4EC0DD23C9F3D0
:103040008C2F8F710E94741D47C0DD2329F08C2FB7
:103050008F710E943E1D40C00E94391D3DC0DD237E
:1030600049F0CF718C2F0E94531D63E08C2F0E947A
:103070004C1F32C081E00E94611F123068F182E073
:103080000E94611F29C0DD2331F0112391F2802FAE
:103090000E94C81521C0112399F2093349F49FEF0A
:1030A000EDEEF2E09150E040F040E1F700C00000AA
:1030B000802F0E94231610C04C2F4F70602FC70125
:1030C0000E9429050E94641C0FC04C2F4F70602F76
:1030D000C7010E942C0508C088EF8C0D843020F4B5
:1030E0000E946E140E94C704DD20C9F00E94BE1E1B
:1030F00080FD15C0F70112820E94B81E0E94531D68
:10310000C7010E94B0180E94B81EDF91CF911F9195
:103110000F91FF90EF90DF90CF900C94741DDF9192
:10312000CF911F910F91FF90EF90DF90CF90089576
:103130000F931F93CF93DF93EC01688179818A818C
:103140000E94951E8C010E94F01D0E94E11CB80196
:10315000CE010E947816DF91CF911F910F910895B3
:10316000CF93DF93EC01988189812B813C81232BC4
:1031700031F08F3F31F481E09F3F19F403C081E0CB
:1031800001C080E080FD19C0CE010E94E0048111E1
:103190000CC00E94C21E882381F08A81882369F0B6
:1031A00082E0DF91CF910C94611FCE010E949818AC
:1031B000CE01DF91CF910C94AB04DF91CF910895B4
:1031C0000E94E91E0E94F91E0E94171F0E94B3234D
:1031D0000E94832280E090E00E94901480E090E0C2
:1031E0000C94A61480917700909178000E94702032
:1031F0000C94E0180E94D91E0C94F218E92FE29565
:10320000EF704E2F50E0FA013297EE30F105B0F436
:10321000E25BFF4F0C945B29803F91F018F4883EED
:1032200068F40EC0843F51F40BC0883E48F0813FE3
:1032300029F406C093FB882780F9089580E008955B
:1032400081E008950E948A1E0E94FE180895CF937F
:10325000DF9300D000D01F92CDB7DEB70F900F9054
:103260000F900F900F90DF91CF910895CF93DF9340
:1032700000D000D000D0CDB7DEB726960FB6F894B8
:10328000DEBF0FBECDBFDF91CF9108951F93CF93C7
:10329000DF93C0919A0116E080919B01C81799F0C5
:1032A000D0E01C9FF0011D9FF00D1124E456FE4F4D
:1032B0004081518162817381848195810E94361998
:1032C0002196C770E9CFDF91CF911F91089540916A
:1032D000CC015091CD016091CE017091CF018091D0
:1032E000D0019091D1010C9436190F931F93CF9375
:1032F000DF938091D10182958F7009F05DC080913C
:10330000CE01882309F458C080919A0110919B0145
:103310006091CC017091CD01C091CF01D091D001CD
:1033200091E06F3F09F090E0292F06E0811709F442
:1033300043C0209721F07F3F21F030E003C031E00F
:1033400001C0322F90E030FD34C0089FF001099F8A
:10335000F00D1124DF01A456BE4F11963C91119738
:10336000371327C03C91361324C012963C91129714
:1033700031111FC013964D915C9114974C1B5D0B3E
:10338000483C5105B0F48091D1018F7080618093E9
:10339000D101EF55FE4F80818F70806180838CEC6E
:1033A00091E00E94B018DF91CF911F910F910C9482
:1033B000461901968770BACFDF91CF911F910F9177
:1033C00008959F92AF92BF92CF92DF92EF92FF92B9
:1033D0000F931F93CF93DF93CDB7DEB761970FB6EF
:1033E000F894DEBF0FBECDBF8C0185E0F801DE0191
:1033F0001D9601900D928A95E1F7F8014081518167
:10340000E2809091CC016091CD012091CF0130916B
:10341000D0012115310531F06F3F31F481E09F3F3C
:1034200019F403C081E001C080E0F82FF1709F2EF5
:1034300080FD46C1F801A380B4808CECC82E81E0E9
:10344000D82EF090CE01F501E21BF30BFF2009F41A
:10345000DFC08091D101E83CF10508F09BC0282F26
:10346000207F09F052C0561313C0491311C0FE2C1F
:10347000E1100EC08F7080618093D1010E946719A6
:10348000C6010E94B0188091D101F801858358C10E
:10349000AB2831F05F3F31F481E04F3F19F403C0B6
:1034A00081E001C080E080FD03C081E08E2502C084
:1034B00080E090E0F82FF170FF2E80FF1CC080911B
:1034C0009A0120919B0136E0821709F417C190E020
:1034D000389FF001399FF00D1124E456FE4F6181B1
:1034E000561306C06081461303C06281E61203C012
:1034F00001968770E9CFFE2CEE2009F421C180915E
:10350000D10181608093D1015AC0561306C049137E
:1035100004C0E11002C0F8019FC04D875E878D8511
:103520009E850E942219882379F1EE2069F120916D
:10353000D101822F82958F7090E0029774F0809174
:10354000CC019091CD0198878F831986BB86AA867E
:103550002C87CE0107960E94B01886E0F801ACECEB
:10356000B1E001900D928A95E1F70E9475190E94D1
:1035700067190DC0561729F14D875E878D859E8589
:103580000E94221981112CC0C8010E94B018FF248A
:10359000F394D6C0282F207F69F77A2DB98AA88A9C
:1035A0006E2D89890E9427198CEC91E00E94B01839
:1035B00086E0F60111928A95E9F70E946719F12CCD
:1035C000BFC04913D9CFE110D7CFF8018583C80117
:1035D0000E94B01886E0F60111928A95E9F7B0C012
:1035E000EE2091F22091D101822F82958F7090E090
:1035F00002970CF4B2CF8091CC019091CD019A83C7
:1036000089831B82BD82AC822E83CE010196A3CF1B
:10361000E83CF10508F047C0FE2CEE2009F4B4CFD9
:10362000561330C049132EC02091D10120FD21C076
:10363000822F82958F70482F50E041155105C9F0B7
:10364000F80125834F30510541F08F5F982F9295F7
:10365000907F822F8F70892B8583C8010E94B018BC
:1036600086E0F801ACECB1E001900D928A95E1F7AB
:1036700042C086E0F801ACECB1E001900D928A9571
:10368000E1F75EC04D875E878D859E850E94221979
:10369000811163CF8091D10181608093D101C801F4
:1036A0000E94B0184DC07A2DB98AA88A6E2D8989DA
:1036B0000E94271986E0F60111928A95E9F71BC04E
:1036C000EE2009F461CF4D875E878D859E850E942F
:1036D0002219F82E882309F457CF86E0F801ACECC4
:1036E000B1E001900D928A95E1F78CEC91E00E9497
:1036F000C2150E9475190E94671922C04D875E8706
:103700008D859E850E948A1E292F22952F7022303A
:1037100028F49F7039F0811105C00BC0243028F4C3
:103720009F7049F4805E883020F0C8010E94B01874
:103730009F2CF92C05C0F8019581907F99F7F9CF5E
:103740008F2D61960FB6F894DEBF0FBECDBFDF910F
:10375000CF911F910F91FF90EF90DF90CF90BF908E
:10376000AF909F90089588EC90E008951F93CF93B9
:10377000DF93CDB7DEB72C970FB6F894DEBF0FBE40
:10378000CDBF4F83588769877A878B879C87CE0107
:1037900007960E94E1198823D1F09F8188852A85A8
:1037A0003B85232B31F08F3F31F481E09F3F19F4AB
:1037B00003C081E001C080E080FD47C04F81588593
:1037C00069857A858B859C850E9436193EC086E086
:1037D000FE013796DE01119601900D928A95E1F770
:1037E000FF81E8856A857B856115710531F0EF3FC2
:1037F00031F481E0FF3F19F403C081E001C080E0B3
:1038000080FD23C020919B0130E0C90101968770A3
:10381000992740919A0150E084179507F1F1F983B7
:10382000EA837D836C8396E0929FD001939FB00DD5
:103830001124A456BE4FFE01319601900D929A9527
:10384000E1F780939B010E94461916E080919A014E
:1038500090919B01891771F1189FC0011124845622
:103860009E4F0E94E119882329F1E0919A011E9F41
:10387000F0011124E456FE4F408151816281738131
:10388000848195810E94361980919A0190E0019679
:103890008770992780939A01D9CF0E94FA181092C5
:1038A0009B0110929A01ECECF1E086E0DF011D92A1
:1038B0008A95E9F72C960FB6F894DEBF0FBECDBF00
:1038C000DF91CF911F910895EF92FF920F931F9375
:1038D000CF93DF938C01892B09F46CC0F12CEE247B
:1038E000E394E8012196F8018491843740F4843010
:1038F00008F051C0813081F0823019F15BC085370A
:1039000009F444C0A8F19CE7980F903708F052C022
:103910008F770E94231641C00E5F1F4FFE018491D6
:1039200090E2980F983050F48770FE2D01C0FF0F81
:103930008A95EAF78F2F0E94EC1E14C00E94C815CA
:103940002DC00E5F1F4FFE01849190E2980F9830BA
:1039500060F48770FE2D01C0FF0F8A95EAF78F2F64
:103960000E94F21E0E94171F19C00E94231616C043
:103970000E5F1F4FFE01C491CC2381F087EB9BE0CB
:103980000197F1F700C00000C150F6CF0E5F1F4F46
:10399000FE01F49003C00E94C8158E018F2D88236C
:1039A00009F49FCFE7EBFBE03197F1F700C000008F
:1039B0008150F5CFDF91CF911F910F91FF90EF9044
:1039C0000895089508950C94E21C0C94E31C0E9441
:1039D000E51C609308027093090280930A02909399
:1039E0000B020C94E0180C94E71C0F931F930091AA
:1039F00008021091090220910A0230910B02602BFB
:103A0000712B822B932B1F910F910C94E71C0F931A
:103A10001F93009108021091090220910A0230912F
:103A20000B0260237123822393231F910F910C9427
:103A3000E71C0F931F930091080210910902209137
:103A40000A0230910B0260277127822793271F916A
:103A50000F910C94E71C0C94E21C0E942B1D6093A8
:103A600004027093050280930602909307020C945F
:103A7000E01860E070E0CB010C942D1D0F931F93B4
:103A800041E050E060E070E08A019B0104C0000F5B
:103A9000111F221F331F8A95D2F7C901B8011F9148
:103AA0000F910C942D1D0F931F9341E050E060E0A7
:103AB00070E004C0440F551F661F771F8A95D2F728
:103AC0008091040290910502A0910602B091070234
:103AD0008A019B01082B192B2A2B3B2BC901B8010A
:103AE0001F910F910C942D1D0F931F9341E050E0F7
:103AF00060E070E004C0440F551F661F771F8A9571
:103B0000D2F7409550956095709580910402909100
:103B10000502A0910602B09107028A019B010823C9
:103B200019232A233B23C901B8011F910F910C943B
:103B30002D1D0F931F9341E050E060E070E004C042
:103B4000440F551F661F771F8A95D2F78091040294
:103B500090910502A0910602B09107028A019B0193
:103B6000082719272A273B27C901B8011F910F9160
:103B70000C942D1D0F931F930091040210910502C8
:103B80002091060230910702602B712B822B932B20
:103B90001F910F910C942D1D0F931F930091040200
:103BA00010910502209106023091070260237123D3
:103BB000822393231F910F910C942D1D0F931F931C
:103BC0000091040210910502209106023091070233
:103BD00060277127822793271F910F910C942D1D29
:103BE00008952FE0929F800D1124E82FE695E69529
:103BF000E695877051E001C0550F8A95EAF785E098
:103C0000E89FF0011124EE52FE4F20E030E070E01A
:103C10004081CB01022E02C0969587950A94E2F767
:103C20008170819584278523842781932F5F3F4F5F
:103C30002530310569F708952FE0929F800D1124FA
:103C4000682F669566956695982F977085E0689FB2
:103C5000B001112440E050E080E0FB01E40FF51FCB
:103C6000EE52FE4F208130E0092E02C03695279596
:103C70000A94E2F721703327042E01C0220F0A9420
:103C8000EAF7822B4F5F5F4F4530510531F70895BA
:103C9000BF92CF92DF92EF92FF920F931F93CF9339
:103CA000DF938C01C0900402D0900502E0900602E0
:103CB000F09007028091080290910902A0910A02F7
:103CC000B0910B02C82AD92AEA2AFB2ACFE1D0E018
:103CD000D701C6010C2E04C0B695A7959795879578
:103CE0000A94D2F780FD04C0219790F7B12C07C049
:103CF000BC2EB8018C2F0E9448050197A9F38B2D8B
:103D0000DF91CF911F910F91FF90EF90DF90CF90B7
:103D1000BF900895CF93DF93EC010E94481EBE012F
:103D20000E944805DF91CF9108951F93CF93DF93B1
:103D3000EB0190919901992321F0CB010E948A1EF9
:103D400013C0882349F0CB010E94481E182F682F0A
:103D5000CE010E94F11D04C0CB010E941C1E182F31
:103D6000BE01812F0E944805DF91CF911F910895D8
:103D700080910C02859585958595089580910C021A
:103D80008770089590910C02977081E009F480E0AB
:103D9000089580911802089590911802892B8093BC
:103DA0001802089580959091180289238093180233
:103DB000089510921802089590911702892B80930C
:103DC0001702089580959091170289238093170216
:103DD000089510921702089590911602892B8093EE
:103DE00016020895809590911602892380931602F9
:103DF000089510921602089580910D020895089575
:103E00000C94FF1E0C94001F90910D02981721F046
:103E100080930D020C94021F089580910D02882357
:103E200029F010920D0280E00C94021F0895E09199
:103E30007700F0917800809118028083E0917700FC
:103E4000F0917800908180911702892B8083E09116
:103E50007700F0917800908180911602892B808301
:103E600080910D02882381F0E0917700F091780035
:103E70009081892B808380917700909178000E94B7
:103E80002A2081110E940D1F809177009091780067
:103E90000C947A140C94FF1E98E0899F90011124D1
:103EA000262B20930C020E94531D80910C028595B5
:103EB000859585950C944A1F10920C0280E00C9415
:103EC0004A1F20910C028095822380930C02982F28
:103ED000977079F430E0482F082E000C550B24170A
:103EE000350739F08595859585950E94741D0C944C
:103EF0005C1F089580E090E00E94092A21E08C3E3A
:103F00009E4F09F020E0822F089582E090E00C940B
:103F1000FB2983E090E00C94FB29CF9384E090E0B0
:103F20000E94FB29C82F81E290E00E94FB292C2FE0
:103F300030E0A901582BCA01CF910895CF93C92F22
:103F4000682F84E090E00E940F2A6C2F81E290E0BD
:103F5000CF910C940F2A86E090E00C94FB29682FF7
:103F600086E090E00C940F2AAB01BC018FE090E05A
:103F70000C94202AAB01BC0183E190E00C94202A30
:103F800060E070E0CB010C94BA1F60E070E0CB0100
:103F90000E94B41F0C94C01F6CEE7EEF80E090E096
:103FA0000E942C2A60E082E090E00E940F2A60E0EC
:103FB00083E090E00E940F2A1092080210920902FA
:103FC00010920A0210920B0260E084E090E00E94DE
:103FD0000F2A60E081E290E00E940F2A60E085E015
:103FE00090E00E940F2A60E086E090E00E940F2A95
:103FF0006FEF87E090E00E940F2A40E050E0BA01A6
:1040000088E090E00E94202A60E08DE090E00E942D
:104010000F2A40E050E0BA0188E190E00E94202A97
:1040200060E087E190E00E940F2A40E050E0BA0192
:104030008CE190E00E94202A60E080E290E00E9403
:104040000F2A0C94C51F0C94CC1F682F8EE090E0B3
:104050000C940F2AFC01329697E080E0915029F0F1
:1040600021912223D9F38F5FF9CF0895662349F078
:10407000FC01329608962191621729F0E817F9079A
:10408000D1F780E0089581E008959C01FC0132960B
:104090009FEF80E04191461789F09F3F19F441114D
:1040A00001C0982F8F5F8630A9F79F3F39F0F90143
:1040B000E90FF11D97FDFA956283089508959C011B
:1040C0002A5F3F4FFC014281461301C012820196D4
:1040D00082179307B9F708950C9445200C945F203C
:1040E000029626E0FC0111922A95E9F708950895B9
:1040F0000C9477200C947720CF930E947A200E9412
:10410000A0070E947820C0E08C2F0E943707892BDF
:1041100029F4CF5FC530C1F780E001C081E0CF91C5
:1041200008958BE083BF8BEB8CBF82E089BF08953D
:104130002FB7F8948091F8029091F902A091FA02B9
:10414000B091FB022FBF08959C014FB7F894809166
:10415000F8029091F902A091FA02B091FB024FBFD0
:10416000821B930B089578941F920F920FB60F92B3
:1041700011248F939F93AF93BF938091F8029091F6
:10418000F902A091FA02B091FB020196A11DB11DA6
:104190008093F8029093F902A093FA02B093FB0285
:1041A000BF91AF919F918F910F900FBE0F901F9075
:1041B000189560E081E090E00E94322A87E090EB61
:1041C000DC0180934E0390934F03A0935003B09370
:1041D00051039CE088E10FB6F894A89581BD0FBE0D
:1041E00091BDFFCF0E947A1F811102C00E9423203F
:1041F0000E94851F809319020E948D1F9093FD02DB
:104200008093FC020E94891F682F70E080E090E09C
:104210000E94F31C609104027091050280910602D5
:10422000909107020C942B1D8091200280FF0BC0FF
:1042300060917E0085E0689FB001112475956795B7
:10424000759567952BC081FF09C060917E0085E060
:10425000689FB00111247595679520C082FF07C043
:1042600060917E0085E0689FB001112417C0909195
:104270001F029923D1F060917D00961788F7209155
:104280007E0085E0289F90011124929FA001939FBA
:10429000500D112470E0CA010E9425296038710573
:1042A00040F46115710519F406C065E070E0862FD1
:1042B00008958FE7089581E008958091200280FF9E
:1042C00008C060917A0070E075956795759567955F
:1042D00021C081FF06C060917A0070E075956795F6
:1042E00019C082FF04C060917A0070E010C0909104
:1042F0001E02992399F0609179009617A0F780919A
:104300007A00899FC001112470E00E94252960383D
:10431000710540F46115710519F406C061E070E0A3
:10432000862F08958FE7089581E00895803F21F456
:104330000E941421819504C0813F29F40E94142118
:10434000809323020895823F21F40E9414218195D5
:1043500004C0833F29F40E9414218093220208950F
:10436000893F19F40E945D2105C08A3F31F40E9403
:104370005D2181958093240208958B3F21F40E9452
:104380005D21819504C08C3F29F40E945D218093BA
:1043900025020895843F21F480912102816017C095
:1043A000853F21F480912102826011C0863F21F473
:1043B0008091210284600BC0873F21F4809121020B
:1043C000886005C0883F31F480912102806180932C
:1043D000210208958D3F21F48091200281600BC05D
:1043E0008E3F21F480912002826005C08F3F29F426
:1043F000809120028460809320020895803F39F4E8
:104400008091230287FF6AC01092230267C0813F18
:1044100029F4809123021816BCF360C09091220207
:10442000823F29F497FF5AC01092220257C0833F5F
:1044300019F41916CCF352C090912402893F31F43B
:1044400019160CF04BC01092240248C08A3F19F490
:1044500097FF44C0F8CF8B3F39F48091250287FF46
:104460003DC0109225023AC08C3F29F4809125026C
:104470001816BCF333C0843F21F4809121028E7F53
:1044800017C0853F21F4809121028D7F11C0863FA6
:1044900021F4809121028B7F0BC0873F21F4809112
:1044A0002102877F05C0883F31F4809121028F7EF1
:1044B0008093210213C08D3F21F4809120028E7FD2
:1044C0000BC08E3F21F4809120028D7F05C08F3F6D
:1044D00029F4809120028B7F809320028091220218
:1044E000811106C080912302811102C010921F0227
:1044F00080912402811106C080912502811102C0A1
:1045000010921E0208950E949820209122022111EB
:1045100004C020912302222321F090931D02809356
:104520001C0220912402211104C020912502222383
:1045300021F090931B0280931A0281E292E00C9486
:104540008514EF92FF920F931F93CF93DF9300D0C8
:1045500000D01F92CDB7DEB785E0E1E2F2E0DE01E8
:10456000119601900D928A95E1F7E0902202F09069
:10457000230200912402109125021092220210922F
:1045800023021092240210922502E11003C0FF20A2
:1045900009F45DC080911C0290911D020E94A4202C
:1045A000AC0190911F02992339F020917F0030E0F7
:1045B0002417350758F04BC0209180008AE0289FCF
:1045C000900111242417350718F041C09F3F19F0BE
:1045D0009F5F90931F02EE2061F00E9414211E1431
:1045E00014F09FEF01C091E0989F902D11249093BB
:1045F0002202FF2061F00E9414211F1414F09FEF8B
:1046000001C091E0989F902D112490932302309146
:1046100022023323E1F0209123022223C1F045EB53
:104620003403C0011124992319F09093220203C08E
:1046300081E08093220235EB2303C00111249923EA
:1046400019F09093230203C081E0809323020111AB
:1046500003C0112309F45DC080911A0290911B02DE
:104660000E94A420AC0190911E02992339F0209160
:104670007B0030E02417350758F04BC020917C00B8
:104680008AE0289F900111242417350718F041C0B3
:104690009F3F19F09F5F90931E02002361F00E94DC
:1046A0005D21101614F09FEF01C091E0989F902DAE
:1046B000112490932402112361F00E945D211116B0
:1046C00014F09FEF01C091E0989F902D11249093DA
:1046D0002502309124023323E1F020912502222388
:1046E000C1F045EB3403C0011124992319F09093D4
:1046F000240203C081E08093240235EB2303C00130
:104700001124992319F09093250203C081E080932E
:1047100025028091220281110BC080912302811118
:1047200007C080912402811103C08091250281116C
:104730000E948322EA82FB820C831D8385E0FE01B6
:104740003196A1E2B2E001900D928A95E1F70F90C7
:104750000F900F900F900F90DF91CF911F910F91BD
:10476000FF90EF900895E1E2F2E085E0DF011D9215
:104770008A95E9F710921F0210921E0210922002F1
:104780000895833081F128F4813059F08230D1F0DE
:104790000895853009F449C0B8F1863009F456C04F
:1047A000089580918000262F30E0280F311D2F3F83
:1047B000310524F4680F6093800008958FEF809393
:1047C0008000089580917F00262F30E0280F311D52
:1047D0002F3F310524F4680F60937F0008958FEF19
:1047E00080937F00089580917E00262F30E0280F6F
:1047F000311D2F3F310524F4680F60937E0008952A
:104800008FEF80937E00089580917D00262F30E009
:10481000280F311D2F3F310524F4680F60937D0070
:1048200008958FEF80937D00089580917A00262F60
:1048300030E0280F311D2F3F310524F4680F6093BD
:104840007A0008958FEF80937A000895809179001F
:10485000262F30E0280F311D2F3F310524F4680F3B
:104860006093790008958FEF8093790008958330E5
:1048700011F128F4813049F0823091F008958530AB
:1048800081F120F18630C1F1089580918000681790
:1048900020F4861B80938000089510928000089574
:1048A00080917F00681720F4861B80937F00089515
:1048B00010927F00089580917E00681720F4861B77
:1048C00080937E00089510927E00089580917D006F
:1048D000681720F4861B80937D00089510927D0058
:1048E000089580917A00681720F4861B80937A00DF
:1048F000089510927A00089580917900681720F445
:10490000861B8093790008951092790008950F9383
:104910001F9341E050E060E070E08A019B0104C019
:10492000000F111F221F331F8A95D2F7C901B8014A
:104930000E94F31C1F910F910C94FA188B3109F40B
:1049400068C058F58B3009F486C078F4863009F4D5
:1049500045C020F4853009F44BC07FC0873009F48E
:104960004AC0883009F477C078C0803109F464C047
:1049700068F48E3009F071C08091190282FB222701
:1049800020F991E0922790FB82F94CC0863109F41E
:1049900062C0893109F45FC060C08A32E1F060F41E
:1049A000873209F455C028F48E3108F456C08D5171
:1049B00050C08932E9F051C0833450F48A3308F092
:1049C00045C0853309F444C0883309F444C045C068
:1049D0008334F1F142C00E9423203DC0809119022E
:1049E000817F8E7F8093190281E080932702089552
:1049F0000E94D10430C080911902982F9095917037
:104A000090FB80F980931902911125C0897F877FDF
:104A100010C08091190281FB222720F991E0922792
:104A200090FB81F9809319029923A9F080911902D2
:104A30008160809319020FC08091190283FB2227A5
:104A400020F991E0922790FB83F9ECCF895301C0C4
:104A500080E00E94872481E0089580E0089580E04E
:104A600008950C942F258E518A3030F4E82FF0E011
:104A7000E25DFE4F8081089580E00895CF93C82FB6
:104A800080912702813051F018F0823099F17DC079
:104A90000E94C91E823209F07AC004C00E94C91E59
:104AA000823261F48C2F0E943125811104C08C2F39
:104AB0000E949E241DC081E090E01AC08C2F0E94AD
:104AC0002F25811114C0C43179F048F4CB3079F02E
:104AD000C03109F060C082E08093270208C0C9326B
:104AE00019F0C83321F057C01092270254C081E05A
:104AF000817053C0C93289F118F5C43171F1B0F435
:104B0000C73009F046C08EE18093800082E3809335
:104B10007F008AE080937E0084E180937D0088E0BE
:104B200080937A0088E28093790033C082EE8C0F04
:104B3000863078F58C2F0E9433258093260229C079
:104B4000CE34E9F020F4CB3421F56AE013C0C1354E
:104B500079F0C235F1F461E00DC08091260288231E
:104B600019F01092260215C081E08093270215C02B
:104B700061E006C0809126020E94C1230AC06AE05B
:104B8000809126020E94372404C01092270280E000
:104B900004C081E002C080E0ABCFCF9108950F93B5
:104BA0001F93CF93DF930E9498208C010E94CA1418
:104BB0000E94E8260E9469140E94CC288B9A80E00B
:104BC000815041F0A895E7EBFBE03197F1F700C089
:104BD0000000F6CF8B987894FFEB24ED31E0F15094
:104BE00020403040E1F700C000000E94D414C0E033
:104BF000DCE080912503882331F0109225030E9488
:104C000098208C0107C0C8010E94A420069788F450
:104C1000C1110FC00E94D52780912B03882329F052
:104C20008091090384FD0E94E0140E948F26C0E059
:104C3000E0CF0E947C20811102C0C1E0DACFF8945D
:104C400091B3939A892F8C6081BB82B38D2782BBED
:104C50008FE5EAEEF0E08150E040F040E1F700C07F
:104C6000000082B38D2782BB91BB93987894E5CFE7
:104C70008091B9020895CF93DF9300D01F92CDB7F2
:104C8000DEB790912A02981307C020912802309134
:104C900029022617370791F080932A027093290280
:104CA0006093280289837B836A838091420384FF17
:104CB00005C063E0CE0101960E94D1270F900F90AE
:104CC0000F90DF91CF910895BC0184E00C943B26B6
:104CD000BC0183E00C943B26CF93DF9300D000D03F
:104CE00000D0CDB7DEB7FC0182E0898395E0DE011C
:104CF000129601900D929A95E1F78091420384FFFC
:104D000005C066E0CE0101960E94D12726960FB617
:104D1000F894DEBF0FBECDBFDF91CF910895CF9342
:104D2000DF93CAE0D0E08091090384FF18C080912E
:104D30003602909137029817E1F028E0829FC00177
:104D4000112468E0885C9D4F0E94CD278091360237
:104D500090E001968F709927809336020AC00E94D6
:104D6000D52787EB9BE00197F1F700C00000219762
:104D7000D1F6DF91CF910895CF93DF93EC01A0910D
:104D80003702B0E0CD0101968F709927209136024D
:104D9000281779F093E0AA0FBB1F9A95E1F7A85C5A
:104DA000BD4F98E0FE0101900D929A95E1F7809336
:104DB00037020E94D5270E948F2688E0FE01AEE2CE
:104DC000B2E001900D928A95E1F7DF91CF910895BD
:104DD00081E890E00895FC01808180768032A1F521
:104DE0008181813061F484819581892B69F58EE21E
:104DF00092E0909327038093260388E00895823001
:104E000041F488EB92E0909327038093260381E09E
:104E100008958A3021F483818093B80215C08930C7
:104E200099F4828193818115924081F484819581E6
:104E3000892B61F481E080932D0286819781909384
:104E40002C0280932B0202C080E008958FEF08951A
:104E500020912B0230912C02232B71F020912D02F6
:104E6000213051F4FC0180818093B90210922C0210
:104E700010922B0281E008958FEF08950895FC01B0
:104E800093819330D9F068F4913081F0923009F039
:104E900060C08EEF93E090932703809326038BE30B
:104EA0000895913281F19232F1F153C089E394E097
:104EB000909327038093260382E1089582818130B5
:104EC00061F040F0823089F0833009F042C08BE419
:104ED00094E013C08DE694E010C081E694E09093D6
:104EE0002703809326038AE0089581E594E0909358
:104EF0002703809326038EE00895909327038093E1
:104F0000260384E008958281882329F0813009F501
:104F100089E294E002C080E194E0909327038093BB
:104F2000260389E0089584819581009751F00197C7
:104F300081F481E794E0909327038093260381E82E
:104F4000089582EF94E0909327038093260380E4F2
:104F5000089580E008951F93CF93DF93162FEA0101
:104F6000288124FF05C0398128E82327298302C02E
:104F70002AE52883212FFC01CE010296DC01319124
:104F80003D9321501216DCF3612F0E94F4021C5F46
:104F90001883DF91CF911F91089549E053E00C945D
:104FA000AB2742E453E00C94AB27CF93DF9360919F
:104FB0002803635067FD93C080912403CCE0D0E0C8
:104FC000C81BD109C45DDC4F80912303803120F4DC
:104FD000CE010E943E2781C08D3209F06EC068303C
:104FE00009F07BC083EC8093FE028AE580938C00FD
:104FF000109222038881807621F0CE010E94EB2658
:1050000049C09A81109207038981811106C01092CC
:10501000080327E033E082E038C0853019F490932C
:10502000290330C08630A1F48B81813041F0823079
:1050300031F0833021F0813211F0823221F4CE013F
:105040000E943F2701C080E090E49093220322C099
:10505000883089F0893019F490932B0313C08A307B
:1050600069F08B3079F48BE480930A0380934303D7
:105070008093160307C02BE233E002C027E033E041
:1050800081E003C027E033E080E0309327032093E2
:10509000260309C08F3F39F4988197FD8E8190E8EF
:1050A0009093220307C09F81911104C09E8198179D
:1050B00008F4892F80938B0010C08091220387FF12
:1050C0000CC0CE010E9428278F3F21F48EE18093EF
:1050D0008C0003C0811110928B00109228038091E4
:1050E0008C0084FF4CC080918B008F3F09F447C037
:1050F000C82F893008F0C8E08C1B80938B009091FA
:10510000FE0288E889278093FE02CC2359F1809122
:105110002603909127032091220326FF12C0AEEFB1
:10512000B2E02C2FAC014E5F5240FA01EA0FFB1F98
:10513000E4911196EC931197215011962111F5CF1E
:1051400008C0EFEFF2E0DC012C2F3D9131932150AC
:10515000E1F701962FEF2C0F820F911D90932703FB
:10516000809326036C2F8FEF92E00E94F402CC5FB5
:10517000CC3019F08FEF80938B00C0938C0084E1CA
:1051800090B39C7031F48150D9F71092290310929A
:105190002103DF91CF910895CF93DF9385B7886086
:1051A00085BF8BB780688BBFC9E0D3E08BE4898370
:1051B000A2E4B3E011968C931197E5E1F3E08183CB
:1051C0008AE588838C938083DF91CF910895DB01FA
:1051D0008F939F930E947F29BF91AF91A29F800DD3
:1051E000911DA39F900DB29F900D11240895991BBE
:1051F00079E004C0991F961708F0961B881F7A95CE
:10520000C9F78095089587FB082E062687FD8195AE
:1052100067FD61950E94F7280EF4919507FC819532
:105220000895AA1BBB1B51E107C0AA1FBB1FA617ED
:10523000B70710F0A61BB70B881F991F5A95A9F73F
:1052400080959095BC01CD01089597FB072E16F42B
:10525000009407D077FD09D00E94112907FC05D0E2
:105260003EF4909581959F4F0895709561957F4F7D
:105270000895A1E21A2EAA1BBB1BFD010DC0AA1F97
:10528000BB1FEE1FFF1FA217B307E407F50720F0AF
:10529000A21BB30BE40BF50B661F771F881F991F2A
:1052A0001A9469F760957095809590959B01AC0173
:1052B000BD01CF010895EE0FFF1F0590F491E02D81
:1052C00009940E946929332312F48A1B9B0B0C94C6
:1052D0007A29A29FB001B39FC001A39F700D811DC9
:1052E0001124911DB29F700D811D1124911D0895EF
:1052F0000E946929B7FF0895821B930B08950E94AD
:105300006929A59F900DB49F900DA49F800D911DBC
:1053100011240895B7FF0C947F290E947F29821BD6
:10532000930B08958F929F92AF92BF92CF92DF928C
:10533000EF92FF92CF93DF93EC01688179818A81AC
:105340009B81611571058105910521F464E279ED78
:105350008BE597E02DE133EF41E050E00E944F2ACA
:1053600049015A019B01AC01A7EAB1E40E947F29DF
:105370006B017C01ACEEB4EFA50194010E948D2974
:10538000DC01CB018C0D9D1DAE1DBF1DB7FF03C001
:105390000197A109B04888839983AA83BB839F772B
:1053A000DF91CF91FF90EF90DF90CF90BF90AF90C3
:1053B0009F908F9008950E949229089580E690E032
:1053C0000E9492290895A0E0B0E08093600090933D
:1053D0006100A0936200B09363000895FC01415006
:1053E000504030F001900616D1F73197CF01089563
:1053F000882799270895E199FECF9FBB8EBBE09A3D
:1054000099278DB30895A6E1B0E044E050E00C94F4
:10541000412AA8E1B0E042E050E00C94412A262F56
:10542000E199FECF9FBB8EBBE09A01970DB20216A9
:1054300031F02DBB0FB6F894E29AE19A0FBE0895B1
:105440000396272F0E94102A0E940F2A252F0E94C0
:10545000102A242F0C94102A0196272F0E94102A1C
:105460000C940F2A262FE199FECF9FBB8EBB2DBB3C
:105470000FB6F894E29AE19A0FBE01960895DC0106
:10548000CB01FC01E199FECF06C0FFBBEEBBE09A69
:1054900031960DB20D9241505040B8F70895052E47
:1054A00097FB1EF400940E94662A57FD07D00E94C5
:1054B000392907FC03D04EF40C94662A5095409588
:1054C000309521953F4F4F4F5F4F089590958095B0
:1054D000709561957F4F8F4F9F4F0895F894FFCF40
:1054E00001000000010102000C000C0C01191A1B44
:1054F0001C1D1E1F2021220E022808641E140A32C1
:105500001E3826BC266C2668266426FF5AE200E96F
:1055100000EA00B500B600B700CD008301CC008AD8
:10552000019201940121022302240225022602276E
:10553000022A02B300B4006F007000818283909150
:10554000929394959697373635343332076766656C
:10555000646300010202020206060609090909093C
:10556000090F0F0F0F0F0F15151518191919191904
:1055700019191919192324252525252525E200E9BE
:1055800000EA00B500B600B700CD008301CC008A68
:1055900001920194012102230224022502260227FE
:1055A000022A02B300B4006F0070008182830102FE
:0855B0000304050607080900C9
:00000001FF
